{
  "contractName": "careerBase",
  "abi": [
    {
      "constant": true,
      "inputs": [],
      "name": "careerMemory",
      "outputs": [
        {
          "name": "",
          "type": "string"
        }
      ],
      "payable": false,
      "stateMutability": "view",
      "type": "function",
      "signature": "0xa1ce3396"
    },
    {
      "constant": false,
      "inputs": [
        {
          "name": "_str",
          "type": "string"
        }
      ],
      "name": "setCareer",
      "outputs": [
        {
          "name": "",
          "type": "string"
        }
      ],
      "payable": false,
      "stateMutability": "nonpayable",
      "type": "function",
      "signature": "0xbf7b87e3"
    },
    {
      "constant": true,
      "inputs": [],
      "name": "getCareer",
      "outputs": [
        {
          "name": "",
          "type": "string"
        }
      ],
      "payable": false,
      "stateMutability": "view",
      "type": "function",
      "signature": "0xa4fc68b8"
    }
  ],
  "bytecode": "0x608060405234801561001057600080fd5b506104ec806100206000396000f3fe608060405260043610610057576000357c0100000000000000000000000000000000000000000000000000000000900463ffffffff168063a1ce33961461005c578063a4fc68b8146100ec578063bf7b87e31461017c575b600080fd5b34801561006857600080fd5b506100716102bd565b6040518080602001828103825283818151815260200191508051906020019080838360005b838110156100b1578082015181840152602081019050610096565b50505050905090810190601f1680156100de5780820380516001836020036101000a031916815260200191505b509250505060405180910390f35b3480156100f857600080fd5b5061010161035b565b6040518080602001828103825283818151815260200191508051906020019080838360005b83811015610141578082015181840152602081019050610126565b50505050905090810190601f16801561016e5780820380516001836020036101000a031916815260200191505b509250505060405180910390f35b34801561018857600080fd5b506102426004803603602081101561019f57600080fd5b81019080803590602001906401000000008111156101bc57600080fd5b8201836020820111156101ce57600080fd5b803590602001918460018302840111640100000000831117156101f057600080fd5b91908080601f016020809104026020016040519081016040528093929190818152602001838380828437600081840152601f19601f8201169050808301925050505050505091929192905050506103fd565b6040518080602001828103825283818151815260200191508051906020019080838360005b83811015610282578082015181840152602081019050610267565b50505050905090810190601f1680156102af5780820380516001836020036101000a031916815260200191505b509250505060405180910390f35b60008054600181600116156101000203166002900480601f0160208091040260200160405190810160405280929190818152602001828054600181600116156101000203166002900480156103535780601f1061032857610100808354040283529160200191610353565b820191906000526020600020905b81548152906001019060200180831161033657829003601f168201915b505050505081565b606060008054600181600116156101000203166002900480601f0160208091040260200160405190810160405280929190818152602001828054600181600116156101000203166002900480156103f35780601f106103c8576101008083540402835291602001916103f3565b820191906000526020600020905b8154815290600101906020018083116103d657829003601f168201915b5050505050905090565b6060816000908051906020019061041592919061041b565b50919050565b828054600181600116156101000203166002900490600052602060002090601f016020900481019282601f1061045c57805160ff191683800117855561048a565b8280016001018555821561048a579182015b8281111561048957825182559160200191906001019061046e565b5b509050610497919061049b565b5090565b6104bd91905b808211156104b95760008160009055506001016104a1565b5090565b9056fea165627a7a72305820830bef6d100b24f0fb9ce229a199fce96ea4a0be732947bc562d1b8bf26a7abc0029",
  "source": "pragma solidity >=0.4.25 <0.6.0;\n\ncontract careerBase {\n    string public careerMemory;\n\n    function setCareer(string memory _str) public returns(string memory) {\n        careerMemory = _str;\n\n    }\n\n    function getCareer() public view returns (string memory) {\n        return careerMemory;\n    }\n}",
  "sourcePath": "/Applications/MAMP/htdocs/laravel/careerchain/app/Libs/truffle/contracts/career_memory.sol",
  "compiler": {
    "name": "solc",
    "version": "0.5.0+commit.1d4f565a.Emscripten.clang"
  },
  "schemaVersion": "3.0.1",
  "updatedAt": "2020-01-08T13:25:46.217Z",
  "devdoc": {
    "methods": {}
  },
  "userdoc": {
    "methods": {}
  }
}